:020000040800F2
:1000000008040020450100081B080008B50100088D
:1000100019080008B1010008DB0900080000000011
:10002000000000000000000000000000D5080008EB
:10003000B3010008000000001D080008D7080008F0
:100040005F0100085F0100085F0100085F01000810
:100050005F0100085F0100085F0100085F01000800
:100060005F0100085F0100085F0100085F010008F0
:100070005F0100085F0100085F0100085F010008E0
:100080005F0100085F0100085F0100085F010008D0
:100090005F0100085F0100085F0100085F010008C0
:1000A0005F0100085F0100085F0100085F010008B0
:1000B0005F0100085F0100085F0100085F010008A0
:1000C0005F0100085F0100085F0100085F01000890
:1000D0005F010008D90900085F0100085F010008FE
:1000E0005F0100085F0100085F0100085F01000870
:1000F0005F0100085F0100085F0100085F01000860
:100100005F0100085F0100085F0100085F0100084F
:100110005F0100085F010008C10900085F010008D5
:100120005F0100085F0100085F0100085F0100082F
:10013000DFF80CD000F02AF800480047FD0900085D
:10014000080400200648804706480047FEE7FEE70F
:10015000FEE7FEE7FEE7FEE7FEE7FEE7FEE7FEE777
:100160007909000831010008D2B201E000F8012B42
:10017000491EFBD270470022F6E710B513460A4627
:1001800004461946FFF7F0FF204610BD064C074D08
:1001900006E0E06840F0010394E807009847103457
:1001A000AC42F6D3FFF7C8FFC00A0008E00A000817
:1001B000FEE77047FEE70000044908B58A6902437C
:1001C0008A6189690140009108BD00000010024069
:1001D000044908B58A6902438A618969014000912E
:1001E00008BD000000100240044908B58A690243B6
:1001F0008A6189690140009108BD00000010024039
:10020000F0B50A68C2F30F2595FAA5F2B2FA82F3A7
:1002100069E001229A402A4264D0082B03D240F2BE
:1002200001129A4006E0A3F108024FF00114944035
:1002300044F0806292FAA2F700EB1264B7FA87F7F3
:100240004FEA870C0F27266807FA0CF7BE4392FA8D
:10025000A2F7D1F804E0B7FA87F7BF000EFA07FE5D
:1002600046EA0E0626600E69C7684FEA122C9CFA11
:10027000ACFCBCFA8CFC27EA122706FA0CF63743D2
:10028000C7604E68012E01D0092E2BD192FAA2F739
:10029000B7FA87F74FEA870C032707FA0CF72668A7
:1002A000D1F808E0BE4392FAA2F7B7FA87F7BF0089
:1002B0000EFA07FE92FAA2FC46EA0E06BCFA8CFC85
:1002C0004FEA8C0E4FF0040C26600CFA0EFC92FAEA
:1002D000A2F2B2FA82F2CF68920026EA0C069740A8
:1002E0003E4326605B1C35FA03F292D10120F0BD3B
:1002F0004FF47A71B0FBF1F14FF0E020491E4161FB
:100300000021816105210161704700B5034600F0BD
:10031000B1FA186000F084FA586000F08FFA986023
:10032000586800F099FAD86000BD10B50368002243
:10033000C3F380132BBBD1E900231A43D1E9023464
:1003400023431A430B691A434B691A438B691A43B7
:10035000CB691A430B6A1A4303684FF6BF74A34371
:100360001A43026042684B6922F0040242EA1342D7
:1003700042600A6AB2F5005F02D1898C89B20161DC
:100380000122C16921F40061C161104610BD000065
:10039000014908607047000000000020F0B50268C5
:1003A0001C4B1D4D1D4E1E4F1E4C4FF0804C984255
:1003B00009D0A04207D0604505D0A84203D0B04282
:1003C00001D0B84205D1D1F804E022F0700242EA2F
:1003D0000E02984209D0A04207D0604505D0A8423D
:1003E00003D0B04201D0B84203D1CD6822F44072AC
:1003F0002A4302608A68C2620A888262984201D0F7
:10040000A04201D1097C0163416941F001014161D0
:100410000120F0BD002C0140000400400008004015
:10042000000C0040003401402DE9FF410446C06843
:100430000D460026C0F34030002861D1E9686868A5
:10044000E2680843296941F20C639A431143084367
:10045000E060A868216921F4405101432161686985
:10046000616921F44071014361616846FFF74DFF06
:100470002548844201D103980CE02448844208D0E6
:100480002348844205D02348844202D02248844233
:1004900036D10298A0B32A6892B300EBC00101EBF9
:1004A00000119200B1FBF2F36420B3FBF0F36FF0A4
:1004B00018077B43B1FBF2F5B1FBF2F705EB8305BF
:1004C000322303EB0515B5FBF0F5B7FBF0F705F0AC
:1004D000F00505EB0715B1FBF2F7B1FBF2F1B1FB4B
:1004E000F0F101266FF01802514307EB810103EB95
:1004F0000111B1FBF0F000F00F00284480B2A060C1
:1005000004B03046BDE8F0810038014000440040AE
:1005100000480040004C00400050004008B54FF03B
:10052000E0210A690092421C00D0401C0A69D203F3
:1005300000D5401E0028F9D108BD00002DE9F04F7C
:1005400085B014216846FFF716FE2020FFF734FE21
:100550000420FFF731FE1020FFF72EFE0820FFF7E2
:100560002BFEDFF8AC80294C4FF48E71C8F81010C8
:10057000DFF8A09041F61001C9F81010DFF898B02C
:100580004FF0040ACBF810A040F201100827CDE983
:1005900000070025694604954046FFF731FE0094A8
:1005A000012403260395CDE9014669464046FFF73D
:1005B00027FE1A4803958DE8510069464846FFF723
:1005C0001FFE42F22000CDE9000769460494484628
:1005D000FFF716FE1248CDE900076946049440462D
:1005E000FFF70EFE0F4869468DE851044846FFF7B5
:1005F00007FE40F2044003958DE8510069465846D5
:10060000FFF7FEFD05B0BDE8F08F00001D1C0104E2
:1006100000080140001001400014014010101004B7
:10062000800080040800080430B58FB02821684697
:10063000FFF7A1FD14210AA8FFF79DFD4FF480509C
:10064000FFF7C6FD0420FFF7C3FD4AF2A0000A90A1
:1006500009200B9003200024CDE90C04114D0AA9B8
:100660002846FFF7CDFD44F240000A9004200B908D
:100670000AA92846FFF7C4FD4FF48270CDE9004077
:100680006815CDE9044002940820CDE906040394DE
:100690000A20CDE9084069460348FFF746FE0FB03F
:1006A00030BD0000000801400030014010B586B0A8
:1006B00014216846FFF75FFD2148C16941F0100130
:1006C000C161C06900F0100005901E480068C0F3C9
:1006D0000220C0F10701042900D90421021D072AC4
:1006E00001D2002000E0C01E01228A40521E02F00A
:1006F00004018140144A0020090182F80014124AC2
:100700004FF48001323AC2F800110190472140F2C3
:10071000E7300E4CADF80010029069462046FFF716
:100720003DFE206820F080002060606820F07000AE
:100730006060A06820F08000A06006B010BD0000DE
:10074000001002400CED00E036E000E00010004038
:1007500030B58BB0182105A8FFF70DFD14216846B0
:10076000FFF709FD4FF48040FFF73EFD0420FFF73F
:100770003BFD234800900920019003200024CDE98F
:100780000204204D69462846FFF73AFD1E480090B6
:100790000420019069462846FFF732FD1B48006897
:1007A000C0F30220011D072901D2002000E0C01E75
:1007B00004FA00F10801164981F8000414492020C8
:1007C0002139C1F800014FF4E130CDE905040C20D6
:1007D000CDE9084007940A940E4C05A92046FFF77E
:1007E00023FE206920F490402061606920F02A00F7
:1007F0006061E06840F40050E0600BB030BD000084
:100800000200020400080140040004040CED00E0B2
:1008100025E000E000380140FEE770477047000027
:1008200004494968044A01F0F0010909515CC840D3
:100830007047000000100240A80A000804494968F7
:10084000044A01F4E06102EB11210978C8407047C5
:1008500000100240B80A000804494968044A01F43B
:10086000605102EBD1210978C84070470010024066
:10087000B80A00080648406810F00C01054805D089
:10088000042903D0082901D100F006B87047000000
:100890000010024000127A000B48416811F48032C7
:1008A0000A4909D0B2F5803F06D14168084AC1F330
:1008B0004041491CB2FBF1F14068022200F4701083
:1008C00002EB9040484370470010024000093D0091
:1008D00000127A0070477047244810B5016821F073
:1008E000070141F00201016000682148016841F4FC
:1008F000803101600168C1F340410029FAD04168AC
:1009000021F47C1141F4E8114160016841F08071EB
:1009100001600168C1F340610029FAD0416821F00B
:10092000F0014160416821F4E06141F4806141607F
:10093000416821F460514160416821F0030141F0B8
:1009400002014160416801F00C010829FAD1094C0B
:100950002046FFF7CDFC4FF0E021086940F004008D
:1009600008612046BDE81040FFF712BD002002409C
:100970000010024000A24A040D48016841F0010144
:10098000016041680B4A1140416001680A4A114008
:100990000160016821F480210160416821F4FE01B9
:1009A00041604FF41F0181600449C0030860704733
:1009B000001002400000FFF8FFFFF6FE08ED00E027
:1009C0000448016911F0010F02D06FF001010161CB
:1009D00070470000001000407047FEE702E008C8C2
:1009E000121F08C1002AFAD170477047002001E0A9
:1009F00001C1121F002AFBD170470000234808B52F
:100A0000816941F001018161816901F00101009179
:100A1000C16941F08051C161C0691D4900F0805039
:100A2000009008684FF6FF0210401A4A40F44070E8
:100A3000104308601848416821F0E0614160416856
:100A400041F000714160FFF747FFFFF777FDFFF7C7
:100A50007FFEFFF7E9FDFFF729FE1048C16841F06E
:100A60000101C160016841F0010101600C4C0D4DB4
:100A70004FF4FA763046FFF751FDE06880F480705D
:100A8000E060E86880F00400E860F3E700100240EE
:100A90000CED00E00000FA050000014000100040ED
:100AA00000080140001401400000000000000000A8
:100AB0000102030406070809000000000102030404
:100AC000E00A00080000002004000000DC09000823
:100AD000E40A00080400002004040000EC090008F7
:040AE00000A24A0422
:0400000508000131BD
:00000001FF
